:020000040800F2
:10000000F008002029020008F31E0008C11C0008A7
:10001000F11E00081F040008692500080000000008
:10002000000000000000000000000000311F000878
:10003000A904000800000000F51E0008331F000896
:10004000430200084302000843020008430200087C
:10005000430200084302000843020008AD04000800
:10006000DD040008430200084302000843020008C0
:10007000430200082104000843020008430200086C
:10008000430200084302000843020008430200083C
:10009000430200084302000843020008430200082C
:1000A000430200084302000843020008430200081C
:1000B00043020008E11F0008430200084302000851
:1000C00043020008430200084302000843020008FC
:1000D00043020008430200084302000843020008EC
:1000E00043020008430200084302000843020008DC
:1000F00043020008430200084302000843020008CC
:1001000043020008430200084302000843020008BB
:1001100029230008430200084302000843020008A4
:10012000430200084302000843020008430200089B
:100130004302000800000000000000004302000825
:10014000430200084302000843020008430200087B
:10015000430200084302000843020008430200086B
:10016000430200084302000843020008430200085B
:1001700043020008430200080000000000000000E5
:10018000430200084302000800F002F800F03CF8C7
:100190000AA090E8000C82448344AAF10107DA45E2
:1001A00001D100F031F8AFF2090EBAE80F0013F0F8
:1001B000010F18BFFB1A43F001031847BC250000CC
:1001C000DC250000103A24BF78C878C1FAD852075D
:1001D00024BF30C830C144BF04680C6070470000C1
:1001E0000023002400250026103A28BF78C1FBD840
:1001F000520728BF30C148BF0B6070471FB502F0DF
:10020000A5FA1FBD10B510BD00F0CFF81146FFF7DD
:10021000F5FF02F0E5F900F0EDF803B4FFF7F2FFA7
:1002200003BC00F0F5F80000094880470948004782
:10023000FEE7FEE7FEE7FEE7FEE7FEE7FEE7FEE796
:10024000FEE7FEE704480549054A064B70470000F3
:10025000D11F000889010008F0020020F0080020EA
:10026000F0040020F004002053EA020C00F0698042
:100270002DE9F04B4FF00006002B1FBFB3FA83F5BA
:1002800003FA05F424FA05F65E4012BF1643B2FAEB
:1002900082F502FA05F4C5F120051EBF22FA05FC1D
:1002A00044EA0C04203556EA044C4FEA144418BFC3
:1002B000641C4FF000084FF00009904271EB030CF2
:1002C00039D3002919BFB1FA81F701FA07F6B0FA5C
:1002D00080F700FA07F6C7F120071EBF20FA07FCD7
:1002E00046EA0C062037B6FBF4FCA7EB0507103FE7
:1002F00007F01F0BCBF120060CFA0BFB2CFA06F6CD
:1003000044BFB3460026202FA4BF5E464FF0000B2B
:100310005BEA060C08BF4FF0010B19EB0B09ABFBB6
:10032000027C48EB0608C01B06FB02CC0BFB03CC8F
:1003300071EB0C01C1E70B46024641464846BDE859
:10034000F08B13B54FF000004FF00001AFF30080C9
:10035000BDE81C4070474FF0000200B513469446BC
:100360009646203922BFA0E80C50A0E80C50B1F10D
:100370002001BFF4F7AF090728BFA0E80C5048BF21
:100380000CC05DF804EB890028BF40F8042B08BFBF
:10039000704748BF20F8022B11F0804F18BF00F8BB
:1003A000012B7047704770477047754600F02CF876
:1003B000AE4605006946534620F00700854618B052
:1003C00020B5FFF73FFFBDE820404FF000064FF09B
:1003D00000074FF000084FF0000B21F00701AC467A
:1003E000ACE8C009ACE8C009ACE8C009ACE8C00999
:1003F0008D46704710B50446AFF300802046BDE837
:100400001040FFF70ABF0000004870478C02002030
:1004100001491820ABBEFEE7260002007047FEE748
:10042000014800F089B900000C0100200168182380
:10043000CAB2103AB2FBF3F2054B6FF30901032A7B
:100440009B5CC36500D9091D8165084670470000A3
:100450005627000810B5014600208B698A6A4FF0C4
:10046000C07453B1B3F5005F15D072B1012A0CD03E
:10047000022A0AD0032A09D104E01AB1012A06D0BF
:10048000022A03D1C96AC90100D5012010BDC96A79
:10049000A142FAD010BD002AF7D0012AF2D0022AD8
:1004A000F3D0032AF3D010BD70470000094810B5FF
:1004B00001210170002141700C21074801F09CF9D5
:1004C0000821054801F098F9BDE81040022000F02D
:1004D0006FBA00000000002080000020094810B51D
:1004E00001214170002101700C21074801F084F9BD
:1004F0000821054801F080F9BDE81040042000F013
:1005000057BA0000000000208000002072B6FEE70D
:100510002DE9F0412DED028B9FED528AB0EE481A85
:10052000F0EE480ADFED508A0020B0EE680A01F0D4
:10053000E3FCB0EE481AF0EE480AB0EE680A01207B
:1005400001F0DAFC494C4A4E4FF4FA672078C8B9FA
:10055000E088401C80B2E080B84203D301202070C4
:100560000020E08094ED030A3168BCEEC00A10EE72
:10057000100AC86394ED040A3168BCEEC00A10EE9C
:10058000100A08642078012867D13A4D61882878DC
:100590000A1A002A00DD0DD400EE100A00EE901AAF
:1005A0003548B8EE400AF8EE600A02F04DF884EDE6
:1005B000050A01E084ED058A6978A088421A002ABC
:1005C00000DD0FD400EE900A00EE101A2A48F8EE73
:1005D000600AB8EE400A00F1480002F035F884EDF8
:1005E000060A01E084ED068A297829B9687818B9E5
:1005F00084ED058A84ED068A94ED030AD4ED050A9C
:1006000030EE200A84ED030AD4ED040A94ED061AB4
:10061000BCEEC00A70EEC10A10EE100AC4ED040A66
:100620003268D063BCEEE00A326810EE100A106443
:100630002089401C80B22081B8420ED30F48278108
:1006400019B1697809B1002200E00122BDEC028BEA
:100650008021BDE8F04100F0AFBABDEC028BBDE8EF
:10066000F0810000000000003480373B14000020BF
:1006700080000020300000206C01002000040240B7
:100680002DE9F0410446876D00F09CFA064694F887
:1006900035000025022806D08020606584F834509B
:1006A0000120BDE8F0812068016821F01601016099
:1006B0002068416921F080014161206C08B9A06C7B
:1006C00020B12068016821F00801016020680168FC
:1006D00021F0010101600CE000F074FA801B052894
:1006E00007D920206065032084F8350084F8345051
:1006F000D7E720680068C007EED194F85C103F206F
:100700008840B860012084F8350084F83450002017
:10071000C7E790F83510022903D0802141650120F8
:100720007047052180F835100068016821F001014B
:1007300001600020704700002DE9F84304464FF0A7
:100740000009CDF8009063484FF41651A56D00687C
:10075000B0FBF1F72E6894F85C10082000FA01F164
:1007600031420FD021680A6852070BD50A6822F07F
:1007700004020A6094F85C108840A860606D40F044
:100780000100606594F85C104FF0010808FA01F070
:10079000304208D021684969090604D5A860606D17
:1007A00040F00200606594F85C10042088403042FC
:1007B00008D021680968890704D5A860606D40F0F9
:1007C0000400606594F85C1010208840304218D016
:1007D00021680968090714D5A860206801684903E1
:1007E00004D50068000308D5A16C07E00168C905BD
:1007F00003D4016821F008010160216C09B1204691
:10080000884794F85C1020208840304231D021681D
:100810000968C9062DD5A86094F835000528206818
:10082000016806D0490347D5006800031DD4616CF8
:100830001CE021F0160101602068416921F080016F
:100840004161206C08B9A06C20B12068016821F0DA
:100850000801016094F85C103F208840A86084F88B
:10086000358084F83490216D1FE0E16B09B120469A
:100870008847606D00282BD0606DC00714D005201C
:1008800084F835002068016821F0010101600098BA
:10089000401C0090B84203D820680068C007F6D119
:1008A00084F8358084F83490E16C002910D001B0D0
:1008B0002046BDE8F04308470168C905D5D4016862
:1008C00021F01001016084F8358084F83490CCE781
:1008D000BDE8F883100000202DE9F041044600F047
:1008E00071F906465CB1022084F83500002584F8D1
:1008F00034502068016821F0010101600DE0012001
:10090000BDE8F08100F05EF9801B052805D92020A4
:100910006065032084F83500F2E720680068C007AE
:10092000F0D12268116820480140D4E9010318433E
:10093000D4E903363343184363691843A369184362
:10094000E3691843236A18430843616A042903D101
:10095000D4E90B1319430843106020684069666AA4
:1009600020F0070130460E43012704280CD1A06A6D
:100970000643E06A40B12046FFF76CFD20B14020FD
:10098000606584F83570BAE7206846612046FFF755
:100990004DFD94F85C203F2191408160656584F8AD
:1009A00035700020ACE700003F8010F07047000079
:1009B000044910B50A68024202D00860FFF7F6FF4A
:1009C00010BD0000143C01402DE9F84FDFF8BCA138
:1009D0000022012503264FF00F090AF1040BAAF1AA
:1009E000040E00BF0B6805FA02F42340A34270D145
:1009F0000F7907F00307012F01D0022F16D1876866
:100A00004FEA420806FA08FC27EA0C07D1F80CC0A6
:100A10000CFA08FC4CEA070CC0F808C04768A7436A
:100A20000C79C4F3001494403C4344600C79E443D3
:100A3000A4070AD0C4684FEA420C06FA0CF7BC437C
:100A40008F6807FA0CF72743C7600C7904F003049A
:100A5000022C12D1D40800EB840CDCF8204057079C
:100A6000FF0E09FA07F824EA0804D1F8108008FA02
:100A700007F848EA0408CCF8208004684FEA420CE2
:100A800006FA0CF7BC430F7907F0030707FA0CF7D7
:100A9000274307604C6814F4403F70D03C4C2768F3
:100AA00047F480472760246822F0030704F4804459
:100AB0000094384C07EB040CDCF8084897074FEA21
:100AC000177809FA08F7BC43334FB84202D1002720
:100AD00024E054E0314FB84201D101271EE0304FED
:100AE000B84201D1022719E02E4FB84201D10327A5
:100AF00014E02D4FB84201D104270FE02B4FB8422C
:100B000001D105270AE02A4FB84201D1062705E0A6
:100B1000284FB84201D1072700E0082707FA08F755
:100B20002743CCF80878DAF800405746D1F804C0DB
:100B30009C435FEACC2C00D51C433C60DBF80040B2
:100B40005F46D1F804C09C435FEA8C2C00D51C435F
:100B50003C60DEF800407746D1F804C09C435FEA71
:100B60008C3C00D51C433C60084F083F3C68D1F8E2
:100B700004C09C435FEACC3C00D51C433C60521C43
:100B8000102AFFF42FAFBDE8F88F0000083C0140A9
:100B9000443802400030014000000240000402409E
:100BA00000080240000C0240001002400014024005
:100BB00000180240001C02400AB18161704709041C
:100BC000FBE7000001488068704700000400002037
:100BD0000248816802781144816070470400002057
:100BE0000B4810B5016841F400710160016841F4DF
:100BF00080610160016841F480710160032000F0B0
:100C00006FF80F2000F006F800F024F8002010BD67
:100C1000003C024070B50D4D04464FF47A712878BF
:100C2000B1FBF0F00A490968B1FBF0F000F00CFBF1
:100C300048B9102C07D200222146501E00F030F88F
:100C400000206C6070BD012070BD00000400002019
:100C5000100000200A4808B5016841F48041016095
:100C6000006800F4804000900548001F016841F0D2
:100C700080510160006800F08050009008BD0000C5
:100C800044380240002809DB00F01F020121914096
:100C90004009800000F1E020C0F80011704700001A
:100CA000F0B40E4B1B680C46C3F30223C3F10705D7
:100CB000042D00D90425191D072901D2002300E0C5
:100CC000DB1E012606FA05F1491E214099409E408F
:100CD000761E16403143F0BC01F072BC0CED00E012
:100CE000064900F0070208684FF6FF03184040EA83
:100CF0000220034A10430860704700000CED00E03A
:100D00000000FA052DE9F0470E46050065D0DFF832
:100D10001481D8F80000F7B200F00700B04207D203
:100D200088F80070D8F8000000F00700B04254D1F5
:100D300028683D4C810712D5400703D5206840F450
:100D4000E05020602878000703D5206840F4604018
:100D500020602068A96820F0F0000843206028780F
:100D6000C0072DD0304968680839012812D0022800
:100D700013D0032811D00968890700292DDA2168CA
:100D800021F0030101432160FFF71CFF814641F27E
:100D9000883A0EE009688903EFE709688901ECE702
:100DA000FFF710FFA0EB0901514502D90320BDE870
:100DB000F0872068696800F00C00B0EB810FEFD17C
:100DC000D8F80010404601F00701B14207D907707A
:100DD000006800F00700B04201D00120E7E7287862
:100DE000400705D52068E96820F4E05008432060FA
:100DF0002878000706D52068296920F4604040EA79
:100E0000C100206000F038F82168084AC1F30311DE
:100E1000515CC8400649086006480068FFF7FAFEC2
:100E20000020C4E7003C0240083802405E2700086A
:100E300010000020080000200448054900680968E7
:100E4000044AC1F38221515CC84070471000002061
:100E5000083802406E270008044805490068096800
:100E6000044AC1F34231515CC84070471000002071
:100E7000083802406E270008154810B5006810F0C9
:100E80000C02144813D01449042A0FD0082A0ED19A
:100E90000F4C241F2268236802F03F025B0207D533
:100EA0002068C0F38810A0FB010106E0084610BDD1
:100EB0002168C1F38811A1FB00010023FFF7D4F9D9
:100EC0002168C1F30141491C4900B0FBF1F010BD9C
:100ED000083802400024F40040787D012DE9F84FE5
:100EE00004006ED02078DFF84C93C007A9F1040508
:100EF0004AD009F104000168C1F38101012908D039
:100F00000068C0F3810002280AD1D9F8000040022D
:100F100006D52868800337D560680028E1D033E023
:100F20006068B0F5803F10D0B0F5A02F286810D0D1
:100F300020F480302860286820F4802028606068D1
:100F4000A8B1FFF73FFE06460DE0286840F4803068
:100F5000F4E740F480202860F7E700BFFFF732FE97
:100F6000801B642873D828688003F7D50CE0FFF74E
:100F700029FE064605E000BFFFF724FE801B64281B
:100F8000F0D828688003F7D42078DFF8AC82800797
:100F90004FF0000A3ED5A748001D016811F00C0F64
:100FA00008D00068C0F3810002280BD1D9F80000F6
:100FB000400207D42868800716D5E068012800D1D0
:100FC00012E033E1E068B8B10120C8F80000FFF793
:100FD000F9FD064605E000BFFFF7F4FD801B02287F
:100FE000C0D828688007F7D52868216920F0F80064
:100FF00040EAC10028600DE0C8F800A0FFF7E2FD5C
:10100000064604E0FFF7DEFD801B02281FD8286893
:101010008007F7D42078000722D5864F874861697A
:10102000703771B101210160FFF7CCFD064604E085
:10103000FFF7C8FD801B022809D838688007F7D55C
:101040000EE0C0F800A0FFF7BDFD064605E082E017
:10105000FFF7B8FD801B02287DD838688007F7D4D9
:101060002078400768D5DFF8CCB100270BF13C0BA6
:10107000DBF80000C0000BD4DBF8001041F0805119
:10108000CBF80010DBF80000012700F08050009042
:101090006B4E3068C00510D4306840F4807030600A
:1010A000FFF790FD009005E0FFF78CFD0099401AD6
:1010B000022850D83068C005F6D55E4EA0686C3660
:1010C00001280FD00528306810D020F001003060D2
:1010D000306820F004003060A068B8B1FFF772FDFE
:1010E00000900FE0306840F00100F4E740F00400A9
:1010F0003060F7E7FFF766FD0099411A41F288304A
:10110000814266D830688007F4D50EE0FFF75AFDBB
:10111000009007E0FFF756FD0099411A41F2883030
:10112000814256D830688007F4D42FB1DBF8001024
:1011300021F08051CBF80010A069C8B33D49091DCA
:101140000968C1F3810102294AD00228504607D01C
:10115000C8F8600000E03CE0FFF734FD04463BE0E7
:101160004746C8F86000FFF72DFD064605E000BFC2
:10117000FFF728FD801B02282BD828688001F7D4B0
:10118000D4E907010843A16A2E4A490802EB01414C
:10119000626A41EA8211084394F82C1040EA016126
:1011A000C9F8001001203866FFF70CFD044606E080
:1011B0003EE000BFFFF706FD001B022809D82868A3
:1011C0008001F7D534E000BFFFF7FCFC001B0228CC
:1011D00002D90320BDE8F88F28688001F4D427E005
:1011E0000128F7D0D9F80000E26900F480019142AB
:1011F0001CD1226A00F03F01914217D147F6C0711D
:10120000626A0140B1EB821F10D1A26A4FF0FF3336
:1012100000F4403103EB5202B1EB024F06D194F8D7
:101220002C1000F07060B0EB016F01D00120D1E70D
:101230000020CFE70438024000004742800E4742BA
:10124000007000400000FFFF10B5401EB0F1807F2D
:1012500001D3012010BD4FF0E02460610F21601721
:1012600001F0AEF90020A06107202061002010BD30
:101270007047704770B590F83C20012A32D00124A5
:1012800080F83C40022280F83D2003685A689D683F
:1012900022F070060A6832435A60134B02689A4281
:1012A00014D0B2F1804F11D0104B9A420ED0104B97
:1012B0009A420BD00F4B9A4208D00F4B9A4205D05E
:1012C0000E4B9A4202D00E4B9A4204D1496825F047
:1012D00080031943916080F83D40002180F83C1064
:1012E000084670BD022070BD0000014000040040AF
:1012F00000080040000C0040000401400040014094
:101300000018004010B5040003D094F83D0010B15F
:1013100007E0012010BD002084F83C00204600F0CA
:101320001FF8022084F83D00211D206800F092FE85
:10133000012084F8460084F83E0084F83F0084F8D9
:10134000400084F8410084F8420084F8430084F8A7
:10135000440084F8450084F83D00002010BD0000E2
:1013600008B5114A01681148914211D1016841F054
:10137000020101600068002200F0020000900221DA
:101380001D20FFF78DFCBDE808401D20FFF77ABC4B
:10139000074A914207D1016841F0040101600068E9
:1013A00000F00400009008BD0004004040380240F6
:1013B0000008004090F83D10012901D0012070473D
:1013C000022180F83D100168CA6842F00102CA603B
:1013D00000681149884214D0B0F1804F11D00F49F4
:1013E00088420ED00E4988420BD00E49884208D060
:1013F0000D49884205D00D49884202D00C498842E7
:1014000004D1816801F00701062903D0016841F089
:10141000010101600020704700000140000400400D
:1014200000080040000C0040000401400040014062
:101430000018004070B5044690F83C0000250128D3
:1014400017D0012684F83C60022084F83D00206813
:10145000826822F0770222F47F4282600868502876
:1014600038D00DDC20284FD005DC90B3102811D1E6
:101470004AE0022070BD302846D040280AD13BE027
:1014800060282FD070280DD0B0F5805F03D0B0F564
:10149000005F12D0012584F83D60002084F83C00F4
:1014A000284670BDCB68D1E90121206800F043FED9
:1014B0002068816841F0770109E0CB68D1E901211A
:1014C000206800F038FE2068816841F48041816026
:1014D000E1E719E0CA684968206800F001FF50217F
:1014E000206806E0CA684968206800F00AFF6021A9
:1014F000206800F02AFECEE7CA684968206800F03C
:10150000EFFE40212068F4E7226801461046F0E72C
:10151000704770B50446006801694FF00005C94383
:10152000890715D4C168C943890711D4E91E01612F
:1015300001202077206880698007204602D0FFF7CD
:10154000E7FF04E000F0C2F8204600F054F92577E8
:1015500020680169C943490717D4C168C9434907CD
:1015600013D46FF0040101610220207720688069A4
:1015700010F4407F204602D0FFF7CAFF04E000F0DD
:10158000A5F8204600F037F9257720680169C9439E
:10159000090716D4C168C943090712D46FF00801BE
:1015A0000161042020772068C0698007204602D0AE
:1015B000FFF7AEFF04E000F089F8204600F01BF9C9
:1015C000257720680169C943C90617D4C168C94392
:1015D000C90613D46FF0100101610820207720683C
:1015E000C06910F4407F204602D0FFF791FF04E06D
:1015F00000F06CF8204600F0FEF8257720680169BD
:10160000C943C90708D1C168C943C90704D1891EA4
:101610000161204600F092F920680169C94309067A
:1016200009D4C168C943090605D46FF0800101617E
:101630002046FFF71DFE20680169C943490609D409
:10164000C168C943490605D46FF0400101612046D5
:1016500000F075F920680169C94389060BD4C16897
:10166000C943890607D46FF0200101612046BDE817
:101670007040FFF7FEBD70BD10B586B00446142162
:101680006846FEF768FE0E492068884215D10D486D
:101690000021026842F002020260006800F00200CD
:1016A00005904FF4407000900220CDE90101CDE992
:1016B000031069460448FFF787F906B010BD000023
:1016C000000800403038024000040240704770B506
:1016D000044690F83C0000260D4601280FD001205A
:1016E00084F83C006AB1042A1DD0082A2FD00C2AA5
:1016F0003FD00126002084F83C00304670BD022017
:1017000070BD206800F02AFD2068816941F0080161
:1017100081612068816921F004018161206881690B
:101720002A69114311E0206800F048FD20688169B2
:1017300041F4006181612068816921F480618161E7
:10174000206881692A6941EA02218161D2E7206823
:1017500000F06AFD2068C16941F00801C16120689C
:10176000C16921F00401C1612068C1692A6911437E
:1017700011E0206800F08CFD2068C16941F400612F
:10178000C1612068C16921F48061C1612068C169BB
:101790002A6941EA0221C161ACE710B5040003D017
:1017A00094F83D0010B107E0012010BD002084F83E
:1017B0003C00204600F01EF8022084F83D00211D68
:1017C000206800F047FC012084F8460084F83E00C1
:1017D00084F83F0084F8400084F8410084F8420017
:1017E00084F8430084F8440084F8450084F83D0000
:1017F000002010BD7047704710B50446022249B161
:1018000004290ED0082913D094F84100012816D0DD
:10181000012010BD94F83E000128F9D184F83E2043
:101820000FE094F83F000128F2D184F83F2008E04F
:1018300094F840000128EBD184F8402001E084F8BE
:1018400041200122206800F069FC16492068164AF0
:10185000884201D0904203D1436C43F40043436477
:101860002068884213D0B0F1804F10D00F498842D1
:101870000DD00F4988420AD00E49884207D09042C5
:1018800005D00D49884202D00C49884204D18168B4
:1018900001F00701062903D0016841F00101016050
:1018A000002010BD00000140000401400004004081
:1018B00000080040000C00400040014000180040BB
:1018C00030B504460D460068002200F027FC194B95
:1018D00041F2111120688A10984202D0164B9842AA
:1018E00009D1036A0B4206D1036A134203D1436C48
:1018F00023F4004343642068036A0B4206D1016A63
:10190000114203D1016821F00101016001203DB1C4
:10191000042D08D0082D09D084F84100002030BDE6
:1019200084F83E00FAE784F83F00F7E784F84000C7
:10193000F4E70000000001400004014070477047D8
:1019400070477047F8B5016804460868CA684B6973
:1019500010F00F0F4FF0000559D003F0010602F40C
:101960009077374365D0C10705D0D10503D5216CE9
:1019700041F001012164410705D5D90703D0216C4D
:1019800041F002012164810705D5D90703D0216CFC
:1019900041F004012164010707D502F02001314321
:1019A00003D0216C41F008012164216C00293AD058
:1019B000800604D5900602D5204600F0EEFC206893
:1019C0004069216CC0F38010090700D460B3204641
:1019D00000F0BCFC20684069400621D52068143026
:1019E00050E8001F21F0400140E80012002AF5D124
:1019F000A06BA8B16C490165A06BFEF78AFE0028B8
:101A000011D0A06B016D01B0BDE8F040084783061E
:101A10000FD593060DD52046BDE8F84000F0BDBCBB
:101A20002046FFF78EFFF8BD2046FFF78AFF2564AA
:101A3000F8BD266B2023012E79D1C60677D5D606B0
:101A400075D50868486800904869400640D5A16B84
:101A5000086840680004000CEAD0A28D8242E7D9F1
:101A6000E085C869B0F5807F2DD020680C3050E843
:101A7000001F21F4807140E80012002AF5D120688F
:101A8000143050E8001F21F0010140E80012002A44
:101A9000F5D12068143050E8001F21F0400140E8E3
:101AA0000012002AF5D184F83E30256320680C30FE
:101AB00050E8001F21F0100140E80012002AF5D183
:101AC000A06BFEF7DDFDA08DE18D401A81B229E00B
:101AD000A08DE18D401A81B2E08D0028A8D00029A8
:101AE000A6D020680C3050E8002F22F4907240E815
:101AF0000026002EF5D12068143050E8002F22F087
:101B0000010240E80026002EF5D184F83E3025631E
:101B100020680C3050E8002F22F0100240E800232B
:101B2000002BF5D12046FFF70BFFF8BDFFE70506B8
:101B30002BD5150629D594F83D002128F5D1A068AC
:101B4000B0F5805F01D12069B0B1206A411C2162EB
:101B5000216800784860E08C401E0004000CE0849E
:101B6000E3D12068C16821F08001C1602068C168AC
:101B700041F04001C160D8E7206A0088C0F3080046
:101B80004860206A801C2062E5E74006CDD55006FB
:101B9000CBD5CA68204622F04002CA6084F83D30A6
:101BA00000F08DF8C1E700003D23000870B5040087
:101BB00004D094F83D00002510B106E0012070BD6E
:101BC00084F83C50204600F023F8242084F83D009F
:101BD0002068C16821F40051C160204600F03EFC3D
:101BE0002068016921F4904101612068416921F078
:101BF0002A0141612068C16841F40051C160256437
:101C0000202084F83D0084F83E00002070BD0000D4
:101C100070B586B0064614216846FEF79CFB224943
:101C2000306888423ED121480025016841F40021F6
:101C30000160006800F4002005901C48103801681D
:101C400041F0010101600068022100F001000590EF
:101C500003208DE82300039008200490694614486F
:101C6000FEF7B2FE144C134820604005C4E901059C
:101C70004014C4E9035080106561C4E906500002B5
:101C8000C4E908052046FEF727FE08B1FEF73EFC32
:101C9000B463002201213420A663FFF701F8342049
:101CA000FEF7F0FF06B070BD004C00404038024027
:101CB00000000240406002400C0100207047704765
:101CC000FEE70000094808B5016841F40011016011
:101CD0000068002200F40010009011460D20FEF76D
:101CE000DFFFBDE808400D20FEF7CCBF30380240D2
:101CF00070B586B014216846FEF72DFB26480025F6
:101D0000016841F080010160016801F080010591E6
:101D1000016841F004010160016801F004010591CE
:101D2000016841F001010160016801F001010591C4
:101D3000016841F0020101600068184E00F00200E5
:101D40000590012280213046FEF736FF06200090E4
:101D50004FF488100124CDE9010469461048FEF7CC
:101D600033FE8020CDE9000469463046CDE90245C6
:101D7000FEF72AFE002203210720FEF791FF07202D
:101D8000FEF780FF002204210820FEF789FF0820CB
:101D9000FEF778FF06B070BD303802400004024004
:101DA0000008024010B586B0002417480094019442
:101DB0000294039404941349059401605321C0E9EB
:101DC000011440F2F311C0E903148461FFF79AFA99
:101DD00008B1FEF79BFB4FF48050009069460A481B
:101DE000FFF728FB08B1FEF791FB049404A906480D
:101DF0000594FFF73FFA002801D0FEF787FB06B0F5
:101E000010BD0000000400403800002010B58EB066
:101E100000240794089409940A940B941C216846A2
:101E20000C94FEF798FA2348214901605321C0E938
:101E3000011444F61F61C0E903148461FFF762FADC
:101E400008B1FEF763FB4FF48050079007A91948CB
:101E5000FFF7F0FA08B1FEF759FB1648FFF79DFCB3
:101E600008B1FEF753FB0B940BA912480C94FFF733
:101E700001FA08B1FEF74AFB6020009040F2DC5006
:101E8000CDE90104082269460A480494FFF71FFCC3
:101E900008B1FEF73BFB0C2269460648FFF717FC2A
:101EA00008B1FEF733FB0348FFF7E6FB0EB010BDA9
:101EB00000080040800000200C4810B50A4901606D
:101EC0004FF4E1314160002181600C22C160C0E922
:101ED00004128161C161FFF769FE002803D0BDE8EB
:101EE0001040FEF713BB10BD004C0040C80000209E
:101EF000FEE7FEE77047000000EBC001094800EB79
:101F0000C100011D81EC030A9FED070A80ED0D0A57
:101F1000B2EE040A80ED0E0A9FED040A80ED0F0A6E
:101F2000704700006C01002000401C4500000000CC
:101F30007047FEF74DBE000030B593B030216846C3
:101F4000FEF709FA14210CA8FEF705FA1E48002531
:101F5000016841F080510160006800F080501190EC
:101F60001A48016841F4804101600068022400F4CD
:101F70008040119001200090000401908001CDE983
:101F80000640192008904FF4A870CDE909040420F8
:101F90000B906846FEF7A2FF08B172B6FEE70CA9E7
:101FA0000F2081E831004FF4A0500F904FF4805083
:101FB000109005210CA8FEF7A5FE002801D072B6EE
:101FC000FEE713B030BD0000403802400070004012
:101FD0000248016841F470010160704788ED00E03B
:101FE000154810B50178012903D0407801281CD08C
:101FF0001DE0124900200122088080211048FEF7D0
:10200000DBFD104890ED000A0F48BCEEC00A0268E4
:1020100010EE101AD1630D49006891ED000ABCEE74
:10202000C00A10EE101A016401E0FEF771FABDE873
:1020300010400748FFF76DBA000000201C00002088
:102040000004024020000020800000202400002026
:1020500038000020F0B50268254C264D264E274F4B
:10206000274B4FF0804CA04209D0604507D0A842D2
:1020700005D0B04203D0B84201D0984204D122F03A
:10208000700E4A6842EA0E02A0421BD0604519D089
:10209000A84217D0B04215D0B84213D0984211D000
:1020A000184DA8420ED0184DA8420BD0174DA8428B
:1020B00008D0174DA84205D0164DA84202D0164DA3
:1020C000A84203D122F44075CA682A434D6922F020
:1020D00080022A4302608A68C2620A688262A04261
:1020E00001D0984201D10969016301214161F0BD2C
:1020F000000001400004004000080040000C0040C7
:1021000000040140004001400044014000480140FB
:1021100000180040001C00400020004010B501F0F5
:102120001F030121046A99408C430462016A9A40AA
:102130001143016210BD10B5846842EA032224F401
:102140007F440A432243826010BD826822F07002FD
:102150000A4342F00701816070470000F0B5026A4F
:1021600022F001020262036A42688469124E24F07E
:1021700073050C682C4323F002058B682B430D4D2F
:10218000A84201D0B04205D123F00807CB683B43F9
:1021900023F00403A84201D0B04205D14D6922F4D6
:1021A000407215438A692A434260846149684163E9
:1021B0000362F0BD0000014000040140F0B5026A76
:1021C00022F010020262026A436884690D6824F4F6
:1021D000E64444EA05248D6822F0200242EA051212
:1021E0000F4D104EA84201D0B04206D1CF6822F068
:1021F000800242EA071222F04002A84201D0B04217
:1022000007D14D6923F4406343EA85038D6943EAAE
:10221000850343608461496881630262F0BD000008
:102220000000014000040140F0B5026A22F480720F
:102230000262026A4368C46922F4007224F07305E2
:102240000C68124E2C438D6842EA05220E4DA842BE
:1022500001D0B04206D1CF6822F4006242EA0722E0
:1022600022F48062A84201D0B04207D14D6923F424
:10227000405343EA05138D6943EA05134360C46183
:102280004968C1630262F0BD0000014000040140E2
:1022900030B5026A22F480520262046A4268C3695D
:1022A0000D6823F4E64343EA05238D6824F40054C3
:1022B00044EA0534084DA84202D0084DA84204D192
:1022C0004D6922F4804242EA85124260C361496846
:1022D0000164046230BD00000000014000040140C0
:1022E00010B5036A046A24F001040462846924F0CE
:1022F000F00444EA021423F00A020A4384610262F1
:1023000010BD10B5036A23F0100303628369046AE9
:1023100023F4704343EA023224F0A00343EA01119C
:102320008261016210BD000010B500F0E1F9BDE866
:1023300010400148FFF706BBC800002010B5806BB5
:102340000021C185C184FFF7FCFA10BD01680C3182
:1023500051E8002F22F4907241E80023002BF5D1C0
:102360000168143151E8002F22F0010241E80023F6
:10237000002BF5D1016B012909D101680C3151E81D
:10238000002F22F0100241E80023002BF5D120217C
:1023900080F83E1000210163704708B590F83E10A8
:1023A000222901D0022008BD82684FF480539A424E
:1023B00001D1016921B1816A9A421BD04AB10AE078
:1023C0000268816A5268C2F308020A80816A891C25
:1023D00008E0026972B10268526802F07F020A7076
:1023E000816A491C8162C18D491E0904090CC1859D
:1023F00003D019E002685268F1E70168CA6822F068
:102400002002CA600168CA6822F48072CA6001684A
:102410004A6922F001024A61202180F83E10016BD6
:10242000012903D0FFF74AFC002008BD0021016309
:1024300001680C3151E8002F22F0100241E800231E
:10244000002BF5D101680A68D20602D50A684968EE
:102450000091818DFFF774FAE6E7000070B504463D
:1024600000680169E26821F440511143016121696A
:10247000A068E26908436169114308432168CA689A
:1024800049F20C639A430243CA6020684169A26919
:1024900021F440711143416131492068884202D0E2
:1024A0003049884202D1FEF7D7FC01E0FEF7C4FCB8
:1024B000E2690023192164253226B2F5004F6268D3
:1024C00028D0A0FB0101930F9200FDF7CDFE01463D
:1024D000B0FBF5F06FF01802504301EB800006EB03
:1024E0000010B0FBF5F000F0F002B1FBF5F002EBEC
:1024F0000012B1FBF5F06FF01803584301EB8000B8
:1025000006EB0010B0FBF5F000F00F00216810445E
:10251000886070BDA0FB010192185B41FDF7A4FE2D
:102520000146B0FBF5F00201B1FBF5F06FF01803C6
:10253000584301EB800006EBC000B0FBF5F000F063
:10254000F80002EB4002B1FBF5F0584301EB8000CC
:1025500006EBC000B0FBF5F000F00700D6E7000086
:102560000010014000140140FEE70000114B10B5BF
:102570001A68546944F0400454611A68D36843F0FF
:102580001003D3600C4A13681C6824F001041C601B
:1025900013681C6824F001041C601468074BA360D6
:1025A0001368D860106841601068016841F001014B
:1025B000016010BDC80000200C010020044C004048
:1025C0000907090E002804DB00F1E02080F8001460
:1025D000704700F00F0000F1E02080F8141D7047F4
:1025E000FEF7FEFAFFF7A8FCFFF782FBFFF76AFB96
:1025F000FFF7D8FBFFF70AFCFFF75EFC0D48FEF77C
:10260000D9FE0C210C48FFF75BF908210A48FFF7B7
:1026100057F90A480068C16841F01001C1600421FF
:102620000748FFF7A3FF012280210648FEF7C4FAFE
:10263000FEE700003800002080000020C8000020D5
:10264000320000200004024080ED040AD0ED051A9B
:1026500030EEC00AC0ED061AC0ED000A80ED050A92
:10266000D0ED0B0AC0ED0C0A90ED011A21EE002A04
:1026700080ED082A90ED091AD0ED022A02EE801AA8
:1026800030EE610A80ED091AD0ED031A60EE211ACE
:10269000C0ED0A1A90ED0E0AB4EEC01AF1EE10FA6F
:1026A00001DD80ED090A90ED091AB1EE400AB4EEA1
:1026B000C01AF1EE10FA02D3B0EE410A01E080ED4B
:1026C000090A32EE000A30EE210A80ED0B0A90ED85
:1026D0000D1AB4EEC10AF1EE10FA06DCB1EE411AA1
:1026E000B4EEC10AF1EE10FA01D2B0EE600A704702
:1026F0000B4881B000680168406800900948016893
:102700000A6822F001020A6002680821516000682C
:10271000016841F00101016001B000F005B800005E
:10272000C80000200C0100200749881E0A78EE2A04
:1027300002D1CA78FF2A03D000210170417070478E
:102740004A7802708978F9E7320000204FF0407033
:10275000E1EE100A70470006101600061016000081
:102760000000000000000102030406070809000041
:102770000000010203040000982700080000002068
:1027800038000000C4010008D027000838000020ED
:10279000B8080000E001000800000000010000008F
:1027A00010000000000000000024F4000000800081
:1027B0004B000000000000000080ED440080D44485
:1027C0000000000000000000000000000000000009
:040000050800018965
:00000001FF
