:020000040800F2
:10000000600A002029020008E32900088D25000865
:10001000E12900086D0B0008B53000080000000061
:100020000000000000000000000000001D2A000881
:10003000F90B000800000000E52900081F2A00084D
:10004000430200084302000843020008430200087C
:10005000430200084302000843020008430200086C
:10006000430200084302000843020008430200085C
:1000700043020008710B0008430200084302000815
:10008000430200084302000843020008430200083C
:100090004302000843020008430200086D0C0008F8
:1000A000430200084302000843020008430200081C
:1000B0004302000843020008CD2A0008430200085A
:1000C00043020008430200084302000843020008FC
:1000D00043020008430200084302000843020008EC
:1000E000FD0B000843020008430200084302000819
:1000F00043020008430200084302000843020008CC
:1001000043020008430200084302000843020008BB
:10011000692E000843020008430200084302000859
:10012000430200084302000843020008430200089B
:100130004302000800000000000000004302000825
:10014000430200084302000843020008430200087B
:10015000430200084302000843020008430200086B
:10016000430200084302000843020008430200085B
:1001700043020008430200080000000000000000E5
:10018000430200084302000800F002F800F03CF8C7
:100190000AA090E8000C82448344AAF10107DA45E2
:1001A00001D100F031F8AFF2090EBAE80F0013F0F8
:1001B000010F18BFFB1A43F0010318472C3200004F
:1001C0004C320000103A24BF78C878C1FAD85207E0
:1001D00024BF30C830C144BF04680C6070470000C1
:1001E0000023002400250026103A28BF78C1FBD840
:1001F000520728BF30C148BF0B6070471FB503F0DE
:10020000DDF81FBD10B510BD00F0CFF81146FFF7A7
:10021000F5FF02F08BFF00F0EDF803B4FFF7F2FFFB
:1002200003BC00F0F5F80000094880470948004782
:10023000FEE7FEE7FEE7FEE7FEE7FEE7FEE7FEE796
:10024000FEE7FEE704480549054A064B70470000F3
:10025000BD2A00088901000860040020600A00200F
:10026000600600206006002053EA020C00F069805E
:100270002DE9F04B4FF00006002B1FBFB3FA83F5BA
:1002800003FA05F424FA05F65E4012BF1643B2FAEB
:1002900082F502FA05F4C5F120051EBF22FA05FC1D
:1002A00044EA0C04203556EA044C4FEA144418BFC3
:1002B000641C4FF000084FF00009904271EB030CF2
:1002C00039D3002919BFB1FA81F701FA07F6B0FA5C
:1002D00080F700FA07F6C7F120071EBF20FA07FCD7
:1002E00046EA0C062037B6FBF4FCA7EB0507103FE7
:1002F00007F01F0BCBF120060CFA0BFB2CFA06F6CD
:1003000044BFB3460026202FA4BF5E464FF0000B2B
:100310005BEA060C08BF4FF0010B19EB0B09ABFBB6
:10032000027C48EB0608C01B06FB02CC0BFB03CC8F
:1003300071EB0C01C1E70B46024641464846BDE859
:10034000F08B13B54FF000004FF00001AFF30080C9
:10035000BDE81C4070474FF0000200B513469446BC
:100360009646203922BFA0E80C50A0E80C50B1F10D
:100370002001BFF4F7AF090728BFA0E80C5048BF21
:100380000CC05DF804EB890028BF40F8042B08BFBF
:10039000704748BF20F8022B11F0804F18BF00F8BB
:1003A000012B7047704770477047754600F02CF876
:1003B000AE4605006946534620F00700854618B052
:1003C00020B5FFF73FFFBDE820404FF000064FF09B
:1003D00000074FF000084FF0000B21F00701AC467A
:1003E000ACE8C009ACE8C009ACE8C009ACE8C00999
:1003F0008D46704710B50446AFF300802046BDE837
:100400001040FFF70ABF000000487047FC030020BF
:1004100001491820ABBEFEE726000200704700002D
:10042000054A04481268018911640449C0880968B2
:10043000C86370471C000020C0000020500100204D
:100440002DE9F047B84C01252DED028BA5709FEDED
:10045000B78AB0EE481AF0EE480ADFEDB58A002000
:10046000B0EE680A02F0C0FAB0EE481AF0EE480AA0
:10047000B0EE680A012002F0B7FAE078AD4EAE4F58
:10048000F0B3AE49AE4D4FF00209012862D0022808
:100490007ED003287DD004287CD0052837D188461B
:1004A000D1ED000A95ED000AA64802F071FE84ED38
:1004B000120AD8ED010A95ED010AA24802F068FE81
:1004C00084ED130A94ED101AD4ED120A31EE601A7D
:1004D00084ED101AD4ED111ABCEEC11A71EE801A17
:1004E00011EE100AC4ED111A3168C863BCEEE11AAE
:1004F000396811EE100A086410EE900A924900E083
:1005000009E0884203D810EE100A88425CD9BDEC9D
:10051000028BBDE8F087A08B401C80B2A083D4ED95
:100520000C0AB0F57A7FC4ED100A94ED0D0A84ED43
:10053000110A02D3E5700020A083FCEEE00A3168C6
:1005400010EE900AC863BCEEC00A396810EE100ABB
:100550000864DCE78846D1ED000A95ED000A794889
:1005600002F016FE84ED120AD8ED010A95ED010A9B
:10057000744802F00DFE84ED130A94ED101AD4EDC8
:10058000120A31EE601A84ED101AD4ED111A02E04D
:100590001DE055E08EE071EE801ABCEEC11AC4ED8C
:1005A000111A316811EE100AC863BCEEE11A3968FD
:1005B00011EE100A086410EE900A64498842A6D22F
:1005C00010EE100A8842A2D284F803909FE7DFF869
:1005D000808195ED000A5B48D8ED000A02F0D8FD55
:1005E00084ED120AD8ED010A95ED010A554802F092
:1005F000CFFD84ED130A94ED101AD4ED120A31EEFA
:10060000601A84ED101AD4ED111ABCEEC11A71EE05
:10061000801A11EE100AC4ED111A3168C863BCEEDD
:10062000E11A396811EE100A086410EE900A49497F
:1006300088428EDA10EE100A88428ADA032037E008
:10064000DFF8148195ED000A3E48D8ED000A02F06B
:100650009FFD84ED120AD8ED010A95ED010A394893
:1006600002F096FD84ED130A94ED101AD4ED120AEF
:1006700031EE601A84ED101AD4ED111ABCEEC11AD5
:1006800071EE801A11EE100AC4ED111A3168C863B8
:10069000BCEEE11A396811EE100A086410EE900AF7
:1006A0002E49884292DC10EE100A88428EDC04202B
:1006B000E0702CE7DFF8A88095ED000A2148D8ED1E
:1006C000000A02F065FD84ED120AD8ED010A95EDED
:1006D000010A1C4802F05CFD84ED130A94ED101A27
:1006E000D4ED120A31EE601A84ED101AD4ED111A0D
:1006F000BCEEC11A71EE801A11EE100AC4ED111A87
:100700003168C863BCEEE11A396811EE100A08645A
:1007100010EE900A13498842CBD810EE100A124905
:100720008842C6DA0520C3E71C0000200000000054
:100730009F71E13950010020C000002070000020AE
:1007400090000020D002002052499DB917B751B93E
:100750007800002052499D398000002017B7513998
:10076000880000206F1283B96F1283392DE9F05F82
:100770002DED048B00F0C8FAEC4C0127A7709FED1B
:10078000EC8AB0EE481AF0EE480A9FEDEA9A022091
:10079000B0EE490A02F028F9B0EE481AF0EE480A25
:1007A000B0EE490A032002F01FF96079E24DE34EF2
:1007B000002866D0E449A246E14FE24CF0EE008A00
:1007C00001F1900801F1D80901287CD0DFF87CB351
:1007D000022879D0DFEDDE9A032876D0DFF84CA32B
:1007E000042873D0D346052869D1B0EE481AF0EE3C
:1007F000480A9FEDD80A022002F0F6F8B0EE481A37
:10080000F0EE480AB0EE690A032002F0EDF8BA46AD
:10081000D7ED000A94ED000A404602F0B9FC8BEDDA
:10082000120A5F46DAED010A94ED010A484602F029
:10083000AFFC87ED130A97ED101AD7ED120A31EECF
:10084000601A87ED101AD7ED111ABCEEC11A71EEBD
:10085000801A11EE100AC7ED111A2968C863BCEEA0
:10086000E11A316811EE100A086410EE900ABA49D4
:10087000884224DC10EE100AB84988421FD20220B8
:10088000B4E0E08D401C80B2E085D4ED0E0AB0F5F6
:100890007A7FC4ED100A94ED0F0A84ED110A02D399
:1008A00067710020E085FCEEE00A296810EE900AEE
:1008B000C863BCEEC00A316810EE100A0864BDECD3
:1008C000048BBDE8F09F02E040E091E0DFE097EDAF
:1008D000000ABB46404670EE680A94ED000A02F03A
:1008E00057FC8AED120A9BED010AF1EE080A574601
:1008F00070EE200A94ED010A484602F049FC87EDAB
:10090000130AD7ED100A97ED121A70EEC10AC7ED5F
:10091000100A97ED111AFCEEE00A31EE000A10EE13
:10092000900A87ED110A2968C863BCEEC00A3168D5
:1009300010EE100A0864F88D42F21071401C80B26B
:10094000F8858842BBD30020F88598E7B0EE481AB6
:10095000F0EE480AB0EE490A022002F045F8B0EE87
:10096000481AF0EE480A9FED7E0A032002F03CF898
:1009700097ED020AB0EE088ABA4670EE480A94ED86
:10098000000A404602F004FC684F484687ED120A10
:100990009AED030A70EE480A94ED010A02F0F8FBA2
:1009A00087ED130AD7ED100A97ED121A70EEC10AFF
:1009B000C7ED100AD7ED111AFCEEE00A71EE801AAD
:1009C00010EE900AC7ED111A2968C863FCEEE10A1F
:1009D000316810EE900A086411EE101A59453FF77D
:1009E0006EAF10EE101A5945F9DC0320787166E7F6
:1009F000B0EE481AF0EE480AB0EE690A022001F0A3
:100A0000F3FFB0EE481AF0EE480AB0EE690A032090
:100A100001F0EAFF97ED040ABA46404670EE280A54
:100A200094ED000A02F0B4FB404F484687ED120AED
:100A30009AED050A70EE680A94ED010A02F0A8FB2F
:100A400087ED130A97ED101AD7ED120A31EE601AEE
:100A500087ED101AD7ED111ABCEEC11A71EE801A8B
:100A600011EE100AC7ED111A2968C863BCEEE11A2D
:100A7000316811EE100A086410EE900A3949884274
:100A8000B5D210EE100A5845B1DC0420AEE7B0EE46
:100A9000481AF0EE480AB0EE490A022001F0A4FF1D
:100AA000B0EE481AF0EE480A9FED2F0A032001F03D
:100AB0009BFF97ED060ABB46404670EE280A94ED70
:100AC000000A02F065FB8AED120A9BED070A574601
:100AD000484670EE280A94ED010A02F059FB87EDB2
:100AE000130A97ED101AD7ED120A31EE601A87ED4E
:100AF000101AD7ED111ABCEEC11A71EE801A11EE60
:100B0000100AC7ED111A2968C863BCEEE11A3168F2
:100B100011EE100A086410EE900A12498842AFD212
:100B200010EE100A8842ABD205205FE71C000020BF
:100B30000000000017B7D13950010020C00000208C
:100B4000B002002090000020D002002017B7D13959
:100B50009F71E139556AF63917B7513917B751B94D
:100B6000B3EF0A3A17B7D1B9E02D103AFEE700000B
:100B7000014800F0CDB900002002002001681823D0
:100B8000CAB2103AB2FBF3F2054B6FF30901032A24
:100B90009B5CC36500D9091D81650846704700004C
:100BA000C633000810B5014600208B698A6A4FF0F1
:100BB000C07453B1B3F5005F15D072B1012A0CD0E7
:100BC000022A0AD0032A09D104E01AB1012A06D068
:100BD000022A03D1C96AC90100D5012010BDC96A22
:100BE000A142FAD010BD002AF7D0012AF2D0022A81
:100BF000F3D0032AF3D010BD7047000070B5174D35
:100C00002868174C40054FF001060ED5A67000204D
:100C1000A0712071E070607020700C21114801F00B
:100C200017FA0821104801F013FA286800050AD5C0
:100C3000667101F029FD0C210A4801F009FA08212A
:100C4000094801F005FA4FF4806000F09DFABDE814
:100C500070404FF4006000F097BA0000143C01406F
:100C600000000020C0000020500100202DE9F041CC
:100C7000204F3868204CC0054FF000054FF00106AA
:100C80000DD52670A5712571E570A57065700C21D4
:100C90001A4801F0DDF90821194801F0D9F938683E
:100CA00000060DD56670A5712571E570A5702570DB
:100CB0000C21124801F0CCF90821114801F0C8F9C3
:100CC0003868400606D5A671667125706570A570F6
:100CD000E5702571402000F057FA802000F054FAAA
:100CE0004FF4807000F050FABDE8F0414FF400700E
:100CF00000F04ABA143C014000000020C00000206F
:100D00005001002072B6FEE7F0B54E494C48D1E9DB
:100D10000021C0E900214C4900F12003D1E9002164
:100D2000C0E90221494AD2E90012C0E90412484A46
:100D3000D2E90012C0E9061290ED000AD0ED020AD5
:100D400000224FEA020C30EE200AD0ED040A30EE09
:100D5000200A00EE901A3F4930EE200AF5EE000A14
:100D600020EE200A81ED140A00EBC205D5ED000A41
:100D7000F4EEC00AF1EE10FA09D20C7910EE907A76
:100D800003EBC4066D68641CC6E900750C710C7930
:100D9000022C01D181F804C0521C042AE4DBD3EDFB
:100DA000010A93ED031A0246F4EEC10AF1EE10FABD
:100DB00006D2D2E90845C2E90C45D2E90A4505E068
:100DC000D2E90A45C2E90C45D2E9084594640022FB
:100DD000C0F84C5000EBC205D5ED000AF4EEC00A95
:100DE000F1EE10FA09DD0C7910EE907A03EBC406EF
:100DF0006D68641CC6E900750C710C79022C01D178
:100E000081F804C0521C042AE4DB93ED010AD3EDFF
:100E1000030AB4EEE00AF1EE10FA08DDD0E9081298
:100E2000C0E90E12D0E90A12C0E91012F0BDD0E9F3
:100E30000A12C0E91012D0E90812C0E90E12F0BD82
:100E40008002002070000020780000208000002038
:100E5000880000201C0000202DE9F0410446876D29
:100E600000F096FA064694F835000025022806D0D0
:100E70008020606584F834500120BDE8F08120684E
:100E8000016821F0160101602068416921F08001AC
:100E90004161206C08B9A06C20B12068016821F084
:100EA000080101602068016821F0010101600CE087
:100EB00000F06EFA801B052807D92020606503200A
:100EC00084F8350084F83450D7E720680068C007FC
:100ED000EED194F85C103F208840B860012084F87F
:100EE000350084F834500020C7E790F83510022907
:100EF00003D08021416501207047052180F835101D
:100F00000068016821F001010160002070470000C5
:100F10002DE9F84304464FF00009CDF800906348EE
:100F20004FF41651A56D0068B0FBF1F72E6894F8E8
:100F30005C10082000FA01F131420FD021680A68E4
:100F400052070BD50A6822F004020A6094F85C107C
:100F50008840A860606D40F00100606594F85C1006
:100F60004FF0010808FA01F0304208D021684969C1
:100F7000090604D5A860606D40F00200606594F831
:100F80005C1004208840304208D021680968890735
:100F900004D5A860606D40F00400606594F85C10B2
:100FA00010208840304218D021680968090714D5FC
:100FB000A86020680168490304D50068000308D5CB
:100FC000A16C07E00168C90503D4016821F008019C
:100FD0000160216C09B12046884794F85C102020FC
:100FE0008840304231D021680968C9062DD5A860F3
:100FF00094F8350005282068016806D0490347D5D4
:10100000006800031DD4616C1CE021F01601016032
:101010002068416921F080014161206C08B9A06C11
:1010200020B12068016821F00801016094F85C108B
:101030003F208840A86084F8358084F83490216D82
:101040001FE0E16B09B120468847606D00282BD076
:10105000606DC00714D0052084F835002068016851
:1010600021F0010101600098401C0090B84203D8B3
:1010700020680068C007F6D184F8358084F8349081
:10108000E16C002910D001B02046BDE8F0430847CC
:101090000168C905D5D4016821F01001016084F808
:1010A000358084F83490CCE7BDE8F8831800002040
:1010B0002DE9F041044600F06BF906465CB10220D0
:1010C00084F83500002584F834502068016821F048
:1010D000010101600DE00120BDE8F08100F058F948
:1010E000801B052805D920206065032084F8350081
:1010F000F2E720680068C007F0D122681168204834
:101100000140D4E901031843D4E9033633431843BB
:1011100063691843A3691843E3691843236A1843B2
:101120000843616A042903D1D4E90B131943084326
:10113000106020684069666A20F0070130460E435F
:10114000012704280CD1A06A0643E06A40B120467A
:10115000FFF728FD20B14020606584F83570BAE7BC
:10116000206846612046FFF709FD94F85C203F2186
:1011700091408160656584F835700020ACE700001F
:101180003F8010F070470000044910B50A68024221
:1011900002D00860FFF7F6FF10BD0000143C0140CC
:1011A0002DE9F84FDFF8BCA10022012503264FF0FE
:1011B0000F090AF1040BAAF1040E00BF0B6805FA2F
:1011C00002F42340A34270D10F7907F00307012FE7
:1011D00001D0022F16D187684FEA420806FA08FCB0
:1011E00027EA0C07D1F80CC00CFA08FC4CEA070CF3
:1011F000C0F808C04768A7430C79C4F300149440B2
:101200003C4344600C79E443A4070AD0C4684FEA25
:10121000420C06FA0CF7BC438F6807FA0CF7274319
:10122000C7600C7904F00304022C12D1D40800EB3F
:10123000840CDCF820405707FF0E09FA07F824EA6F
:101240000804D1F8108008FA07F848EA0408CCF836
:10125000208004684FEA420C06FA0CF7BC430F7971
:1012600007F0030707FA0CF7274307604C6814F4EC
:10127000403F70D03C4C276847F480472760246883
:1012800022F0030704F480440094384C07EB040C6C
:10129000DCF8084897074FEA177809FA08F7BC43C3
:1012A000334FB84202D1002724E054E0314FB84216
:1012B00001D101271EE0304FB84201D1022719E0C9
:1012C0002E4FB84201D1032714E02D4FB84201D16F
:1012D00004270FE02B4FB84201D105270AE02A4F1F
:1012E000B84201D1062705E0284FB84201D10727AF
:1012F00000E0082707FA08F72743CCF80878DAF85F
:1013000000405746D1F804C09C435FEACC2C00D57E
:101310001C433C60DBF800405F46D1F804C09C43AE
:101320005FEA8C2C00D51C433C60DEF80040774619
:10133000D1F804C09C435FEA8C3C00D51C433C6060
:10134000084F083F3C68D1F804C09C435FEACC3C9E
:1013500000D51C433C60521C102AFFF42FAFBDE89F
:10136000F88F0000083C0140443802400030014042
:10137000000002400004024000080240000C02404D
:10138000001002400014024000180240001C0240FD
:1013900001488068704700000C0000200248816806
:1013A00002781144816070470C0000200B4810B592
:1013B000016841F400710160016841F480610160DD
:1013C000016841F480710160032000F06FF80F2084
:1013D00000F006F800F024F8002010BD003C0240A8
:1013E00070B50D4D04464FF47A712878B1FBF0F0DA
:1013F0000A490968B1FBF0F000F00CFB48B9102C69
:1014000007D200222146501E00F030F800206C6008
:1014100070BD012070BD00000C00002018000020ED
:101420000A4808B5016841F480410160006800F491
:10143000804000900548001F016841F08051016024
:10144000006800F08050009008BD00004438024061
:10145000002809DB00F01F020121914040098000B3
:1014600000F1E020C0F8001170470000F0B40E4B0E
:101470001B680C46C3F30223C3F10705042D00D9F2
:101480000425191D072901D2002300E0DB1E0126D7
:1014900006FA05F1491E214099409E40761E1640ED
:1014A0003143F0BC01F032BE0CED00E0064900F023
:1014B000070208684FF6FF03184040EA0220034A7B
:1014C00010430860704700000CED00E00000FA05D2
:1014D0002DE9F0470E46050065D0DFF81481D8F8F5
:1014E0000000F7B200F00700B04207D288F80070A1
:1014F000D8F8000000F00700B04254D128683D4CF5
:10150000810712D5400703D5206840F4E0502060E1
:101510002878000703D5206840F4604020602068E8
:10152000A96820F0F000084320602878C0072DD07B
:10153000304968680839012812D0022813D00328DE
:1015400011D00968890700292DDA216821F00301EB
:1015500001432160FFF71CFF814641F2883A0EE00B
:1015600009688903EFE709688901ECE7FFF710FFD5
:10157000A0EB0901514502D90320BDE8F08720689E
:10158000696800F00C00B0EB810FEFD1D8F80010C3
:10159000404601F00701B14207D90770006800F02A
:1015A0000700B04201D00120E7E72878400705D5C1
:1015B0002068E96820F4E05008432060287800079C
:1015C00006D52068296920F4604040EAC100206007
:1015D00000F038F82168084AC1F30311515CC84093
:1015E0000649086006480068FFF7FAFE0020C4E7D5
:1015F000003C024008380240CE33000818000020AA
:10160000100000200448054900680968044AC1F335
:101610008221515CC8407047180000200838024001
:10162000DE3300080448054900680968044AC1F32C
:101630004231515CC8407047180000200838024011
:10164000DE330008154810B5006810F00C0214488D
:1016500013D01449042A0FD0082A0ED10F4C241F8E
:101660002268236802F03F025B0207D52068C0F3BE
:101670008810A0FB010106E0084610BD2168C1F3F7
:101680008811A1FB00010023FEF7EEFD2168C1F3E4
:101690000141491C4900B0FBF1F010BD083802407F
:1016A0000024F40040787D012DE9F84F04006ED04D
:1016B0002078DFF84C93C007A9F104054AD009F15E
:1016C00004000168C1F38101012908D00068C0F35A
:1016D000810002280AD1D9F80000400206D5286806
:1016E000800337D560680028E1D033E06068B0F54A
:1016F000803F10D0B0F5A02F286810D020F48030A3
:101700002860286820F4802028606068A8B1FFF76E
:101710003FFE06460DE0286840F48030F4E740F4D0
:1017200080202860F7E700BFFFF732FE801B6428A7
:1017300073D828688003F7D50CE0FFF729FE06462A
:1017400005E000BFFFF724FE801B6428F0D828685E
:101750008003F7D42078DFF8AC8280074FF0000ACE
:101760003ED5A748001D016811F00C0F08D0006895
:10177000C0F3810002280BD1D9F80000400207D441
:101780002868800716D5E068012800D112E033E10F
:10179000E068B8B10120C8F80000FFF7F9FD06467F
:1017A00005E000BFFFF7F4FD801B0228C0D82868C1
:1017B0008007F7D52868216920F0F80040EAC100C9
:1017C00028600DE0C8F800A0FFF7E2FD064604E03F
:1017D000FFF7DEFD801B02281FD828688007F7D49A
:1017E0002078000722D5864F87486169703771B12C
:1017F00001210160FFF7CCFD064604E0FFF7C8FDBC
:10180000801B022809D838688007F7D50EE0C0F899
:1018100000A0FFF7BDFD064605E082E0FFF7B8FD3A
:10182000801B02287DD838688007F7D420784007CD
:1018300068D5DFF8CCB100270BF13C0BDBF80000DA
:10184000C0000BD4DBF8001041F08051CBF8001041
:10185000DBF80000012700F0805000906B4E3068EC
:10186000C00510D4306840F480703060FFF790FD00
:10187000009005E0FFF78CFD0099401A022850D82F
:101880003068C005F6D55E4EA0686C3601280FD0D2
:101890000528306810D020F001003060306820F05A
:1018A00004003060A068B8B1FFF772FD00900FE04F
:1018B000306840F00100F4E740F004003060F7E7E2
:1018C000FFF766FD0099411A41F28830814266D8DF
:1018D00030688007F4D50EE0FFF75AFD009007E06E
:1018E000FFF756FD0099411A41F28830814256D8DF
:1018F00030688007F4D42FB1DBF8001021F080515C
:10190000CBF80010A069C8B33D49091D0968C1F3AF
:10191000810102294AD00228504607D0C8F8600049
:1019200000E03CE0FFF734FD04463BE04746C8F8E2
:101930006000FFF72DFD064605E000BFFFF728FD1C
:10194000801B02282BD828688001F7D4D4E907012E
:101950000843A16A2E4A490802EB0141626A41EA42
:101960008211084394F82C1040EA0161C9F8001074
:1019700001203866FFF70CFD044606E03EE000BF9C
:10198000FFF706FD001B022809D828688001F7D55B
:1019900034E000BFFFF7FCFC001B022802D9032043
:1019A000BDE8F88F28688001F4D427E00128F7D03B
:1019B000D9F80000E26900F4800191421CD1226A4A
:1019C00000F03F01914217D147F6C071626A0140B1
:1019D000B1EB821F10D1A26A4FF0FF3300F4403107
:1019E00003EB5202B1EB024F06D194F82C1000F039
:1019F0007060B0EB016F01D00120D1E70020CFE78C
:101A00000438024000004742800E47420070004008
:101A10000000FFFF10B5401EB0F1807F01D3012010
:101A200010BD4FF0E02460610F21601701F06EFBE4
:101A30000020A06107202061002010BD7047704782
:101A400010B590F83C20012A22D0012280F83C20D9
:101A5000CA688C6822F4407222434C6822F4806287
:101A600022430C6822F4006222430C6922F4805263
:101A700022434C6922F400522243C969002322F414
:101A800080420A4301684A6480F83C30002010BD5F
:101A9000022010BD70B590F83C20012A32D00124FC
:101AA00080F83C40022280F83D2003685A689D6817
:101AB00022F070060A6832435A60134B02689A4259
:101AC00014D0B2F1804F11D0104B9A420ED0104B6F
:101AD0009A420BD00F4B9A4208D00F4B9A4205D036
:101AE0000E4B9A4202D00E4B9A4204D1496825F01F
:101AF00080031943916080F83D40002180F83C103C
:101B0000084670BD022070BD000001400004004086
:101B100000080040000C004000040140004001406B
:101B20000018004010B5040003D094F83D0010B137
:101B300007E0012010BD002084F83C00204600F0A2
:101B40001FF8022084F83D00211D206801F022F8D2
:101B5000012084F8460084F83E0084F83F0084F8B1
:101B6000400084F8410084F8420084F8430084F87F
:101B7000440084F8450084F83D00002010BD0000BA
:101B800008B5144A01681448914208D1016841F02F
:101B900002010160006800F00200009008BD0F4AD9
:101BA000914211D1016841F00401016000680022F6
:101BB00000F00400009001211E20FFF757FCBDE853
:101BC00008401E20FFF744BC05488142E6D1024888
:101BD000001DDBE7000400404038024000080040E0
:101BE0000004014090F83D10012901D00120704708
:101BF000022180F83D100168CA6842F00102CA6003
:101C000000681149884214D0B0F1804F11D00F49BB
:101C100088420ED00E4988420BD00E49884208D027
:101C20000D49884205D00D49884202D00C498842AE
:101C300004D1816801F00701062903D0016841F051
:101C400001010160002070470000014000040040D5
:101C500000080040000C004000040140004001402A
:101C60000018004070B5044690F83C00002501289B
:101C700017D0012684F83C60022084F83D002068DB
:101C8000826822F0770222F47F428260086850283E
:101C900038D00DDC20284FD005DC90B3102811D1AE
:101CA0004AE0022070BD302846D040280AD13BE0EF
:101CB00060282FD070280DD0B0F5805F03D0B0F52C
:101CC000005F12D0012584F83D60002084F83C00BC
:101CD000284670BDCB68D1E90121206800F0CBFF18
:101CE0002068816841F0770109E0CB68D1E90121E2
:101CF000206800F0C0FF2068816841F48041816065
:101D0000E1E719E0CA684968206801F089F85021C4
:101D1000206806E0CA684968206801F092F86021EE
:101D2000206800F0B2FFCEE7CA684968206801F079
:101D300077F840212068F4E7226801461046F0E772
:101D4000704770B50446006801694FF00005C9434B
:101D5000890715D4C168C943890711D4E91E0161F7
:101D600001202077206880698007204602D0FFF795
:101D7000E7FF04E000F0D6F8204600F068F9257788
:101D800020680169C943490717D4C168C943490795
:101D900013D46FF00401016102202077206880696C
:101DA00010F4407F204602D0FFF7CAFF04E000F0A5
:101DB000B9F8204600F04BF9257720680169C9433E
:101DC000090716D4C168C943090712D46FF0080186
:101DD0000161042020772068C0698007204602D076
:101DE000FFF7AEFF04E000F09DF8204600F02FF969
:101DF000257720680169C943C90617D4C168C9435A
:101E0000C90613D46FF01001016108202077206803
:101E1000C06910F4407F204602D0FFF791FF04E034
:101E200000F080F8204600F012F92577206801695B
:101E3000C943C90708D1C168C943C90704D1891E6C
:101E40000161204600F0A6F920680169C94309062E
:101E500009D4C168C943090605D46FF08001016146
:101E60002046FFF7EBFD20680169C943490609D404
:101E7000C168C943490605D46FF04001016120469D
:101E800000F089F920680169C94389060BD4C1684B
:101E9000C943890607D46FF0200101612046BDE8DF
:101EA0007040FFF7CCBD70BD30B587B0044614213B
:101EB0006846FEF750FA2468164D0021164A0223A0
:101EC0001648AC420ED1146844F004041460126841
:101ED00002F00402059242150092CDE90131CDE9EC
:101EE000031311E00E4DAC4211D1146844F0040408
:101EF0001460126802F004020592AA150092CDE95E
:101F000001310391032104916946FFF749F907B0B4
:101F100030BD00000004004030380240000802409C
:101F200000040140704770B5044690F83C0000265C
:101F30000D4601280FD0012084F83C006AB1042A24
:101F40001DD0082A2FD00C2A3FD00126002084F86B
:101F50003C00304670BD022070BD206800F09EFE3F
:101F60002068816941F0080181612068816921F060
:101F700004018161206881692A69114311E02068A8
:101F800000F0BCFE2068816941F400618161206835
:101F9000816921F480618161206881692A6941EA4F
:101FA00002218161D2E7206800F0DEFE2068C1696D
:101FB00041F00801C1612068C16921F00401C161DB
:101FC0002068C1692A69114311E0206800F000FF10
:101FD0002068C16941F40061C1612068C16921F4D0
:101FE0008061C1612068C1692A6941EA0221C16139
:101FF000ACE710B5040003D094F83D0010B107E041
:10200000012010BD002084F83C00204600F01EF89E
:10201000022084F83D00211D206800F0BBFD012056
:1020200084F8460084F83E0084F83F0084F84000BD
:1020300084F8410084F8420084F8430084F84400A6
:1020400084F8450084F83D00002010BD70477047BB
:1020500010B50446022249B104290ED0082913D034
:1020600094F84100012816D0012010BD94F83E00DC
:102070000128F9D184F83E200FE094F83F000128B0
:10208000F2D184F83F2008E094F840000128EBD119
:1020900084F8402001E084F841200122206800F00B
:1020A000DDFD16492068164A884201D0904203D1CE
:1020B000436C43F4004343642068884213D0B0F17A
:1020C000804F10D00F4988420DD00F4988420AD066
:1020D0000E49884207D0904205D00D49884202D06F
:1020E0000C49884204D1816801F00701062903D018
:1020F000016841F001010160002010BD00000140B5
:10210000000401400004004000080040000C0040B2
:10211000004001400018004030B504460D460068FC
:10212000002200F09BFD194B41F2111120688A102A
:10213000984202D0164B984209D1036A0B4206D14D
:10214000036A134203D1436C23F4004343642068C1
:10215000036A0B4206D1016A114203D1016821F0E2
:102160000101016001203DB1042D08D0082D09D0E6
:1021700084F84100002030BD84F83E00FAE784F87E
:102180003F00F7E784F84000F4E70000000001405A
:10219000000401407047704770477047F8B5016808
:1021A00004460868CA684B6910F00F0F4FF000052D
:1021B00059D003F0010602F49077374365D0C10788
:1021C00005D0D10503D5216C41F0010121644107FF
:1021D00005D5D90703D0216C41F0020121648107A4
:1021E00005D5D90703D0216C41F004012164010712
:1021F00007D502F02001314303D0216C41F00801E2
:102200002164216C00293AD0800604D5900602D5BD
:10221000204600F068FE20684069216CC0F3801001
:10222000090700D460B3204600F036FE20684069FC
:10223000400621D52068143050E8001F21F04001ED
:1022400040E80012002AF5D1A06BA8B16C490165E5
:10225000A06BFEF74AFE002811D0A06B016D01B003
:10226000BDE8F040084783060FD593060DD52046FC
:10227000BDE8F84000F037BE2046FFF78EFFF8BDFE
:102280002046FFF78AFF2564F8BD266B2023012E28
:1022900079D1C60677D5D60675D508684868009006
:1022A0004869400640D5A16B086840680004000CEE
:1022B000EAD0A28D8242E7D9E085C869B0F5807F77
:1022C0002DD020680C3050E8001F21F4807140E8C8
:1022D0000012002AF5D12068143050E8001F21F0C8
:1022E000010140E80012002AF5D12068143050E8BE
:1022F000001F21F0400140E80012002AF5D184F8C7
:102300003E30256320680C3050E8001F21F010019A
:1023100040E80012002AF5D1A06BFEF79DFDA08DCC
:10232000E18D401A81B229E0A08DE18D401A81B281
:10233000E08D0028A8D00029A6D020680C3050E8F5
:10234000002F22F4907240E80026002EF5D120687C
:10235000143050E8002F22F0010240E80026002E41
:10236000F5D184F83E30256320680C3050E8002F0A
:1023700022F0100240E80023002BF5D12046FFF7A1
:102380000BFFF8BDFFE705062BD5150629D594F8F8
:102390003D002128F5D1A068B0F5805F01D120690A
:1023A000B0B1206A411C2162216800784860E08C4D
:1023B000401E0004000CE084E3D12068C16821F0D5
:1023C0008001C1602068C16841F04001C160D8E768
:1023D000206A0088C0F308004860206A801C2062E0
:1023E000E5E74006CDD55006CBD5CA68204622F099
:1023F0004002CA6084F83D3000F0C7F8C1E7000031
:10240000892E000870B5040004D094F83D00002522
:1024100010B106E0012070BD84F83C50204600F069
:1024200023F8242084F83D002068C16821F400517D
:10243000C160204600F0B8FD2068016921F4904198
:1024400001612068416921F02A0141612068C16869
:1024500041F40051C1602564202084F83D0084F8D7
:102460003E00002070BD0000F0B587B00646142184
:102470006846FDF770FF3D49DFF8ECC03368002483
:102480003A48103903250222082763453AD10368E8
:1024900043F400230360006800F4002005900868FE
:1024A00040F0010008600868CDE9005200F001002A
:1024B000CDE9047069462E48CDE90245FEF770FE6D
:1024C0002D4D2C4828604005C5E901044014C5E99C
:1024D000034080106C61C5E906400002C5E90804AC
:1024E0002846FEF7E5FD08B1FEF70CFCB5630022B7
:1024F00011463420AE63FEF7B9FF3420FEF7A8FF83
:1025000007B0F0BD1D4EB342FAD10368264643F42E
:1025100080130360006800F480100590086840F0A4
:1025200004000860086800F004000590086840F0A6
:10253000080008600868144600F0080005904FF491
:1025400080508DE85100CDE9035769460C48FEF7ED
:1025500027FE04208DE85100CDE90357694609485C
:10256000FEF71EFECCE70000004C00404038024061
:102570000000024040600240200200200050004065
:1025800000080240000C024070477047FEE7000060
:10259000F0B53A483A49024606780B68518B394DF6
:1025A000491C978989B20022EEB10446012E647855
:1025B00027D0022E39D04FF0040C032E48D0042E21
:1025C00010D14183142903D3818D091B8185428356
:1025D000818DB94202D8428380F800C0408DD86313
:1025E00028680164F0BD4489DC632B681F64418363
:1025F000B1F5FA6FF6D3012101704283C4830784D9
:10260000F0BD4183142903D3C18B091BC1834283CD
:10261000C18BC489A14205D842830222027044843E
:10262000028A8284D963008C25E04183142903D374
:10263000818C214481844283818C848AA14205D388
:10264000428303220270428AC2840485408CC6E71A
:102650004183142903D3C18C2144C1844283C18C9A
:10266000C48AA14205D3428380F800C04485028B0E
:102670008285D963008D29680864F0BD1C000020A4
:1026800050010020C00000200749012008700749C0
:10269000002008700649087006490870064908704D
:1026A0000649087070470000030000200600002063
:1026B0000400002002000020010000200000002093
:1026C000094808B5016841F4001101600068002262
:1026D00000F40010009011460D20FEF7C7FEBDE883
:1026E00008400D20FEF7B4BE3038024030B587B048
:1026F00014216846FDF72FFE2648016841F080014D
:102700000160016801F080010591016841F001015B
:102710000160016801F001010591016841F00201C9
:102720000160016801F002010591016841F00401B6
:102730000160016801F004010591016841F00801A0
:10274000016000684FF4041400F0080005904FF495
:10275000706001258DE8310069460F48FEF720FDC5
:10276000C0208DE8310069460C48FEF719FD0022B3
:1027700002211720FEF77AFE1720FEF769FE0022DD
:1027800003212820FEF772FE2820FEF761FE07B025
:1027900030BD000030380240000402400008024012
:1027A00010B58EB000240794089409940A940B94F1
:1027B0001C2168460C94FDF7CEFD1F481D490160A1
:1027C0005321C0E9011444F61F61C0E90314846178
:1027D000FFF7A8F908B1FEF795FA4FF4805007907B
:1027E00007A91548FFF73EFA08B1FEF78BFA124821
:1027F000FFF7FFFB08B1FEF785FA0B940BA90E4813
:102800000C94FFF747F908B1FEF77CFA60200090BE
:1028100040F6C410CDE901040C2269460648049430
:10282000FFF781FB08B1FEF76DFA0348FFF73CFBA9
:102830000EB010BD00040040C000002010B586B0EE
:1028400000241748009401940294039404941349BB
:10285000059401605321C0E9011440F2F311C0E96D
:1028600003148461FFF75EF908B1FEF74BFA4FF4E9
:102870008050009069460A48FFF7F4F908B1FEF766
:1028800041FA049404A906480594FFF703F90028C7
:1028900001D0FEF737FA06B010BD00000008004076
:1028A0000801002010B596B000240F9410941194E4
:1028B000129413941C2108A81494FDF74CFD2021B8
:1028C0006846FDF748FD294827490160A721C0E96E
:1028D000011444F61F61C0E9031444618461FFF7E9
:1028E00021F908B1FEF70EFA4FF480500F900FA9AE
:1028F0001E48FFF7B7F908B1FEF704FA1B48FFF7C7
:1029000078FB08B1FEF7FEF9139413A91748149445
:10291000FFF7C0F808B1FEF7F5F96020089040F61F
:10292000C410CDE909040B940C940D94082208A955
:102930000E480E94FFF7F7FA08B1FEF7E3F900949A
:102940004FF40050CDE90440029401940394694689
:1029500006480794FFF774F808B1FEF7D3F9034867
:10296000FFF7A2FA16B010BD00040140500100208C
:102970000C4810B50A4901604FF4E1314160002173
:1029800081600C22C160C0E904128161C161FFF75E
:1029900039FD002803D0BDE81040FEF7B3B910BDE3
:1029A000004C0040980100200C4810B50A49016015
:1029B0004FF461214160002181600C22C160C0E9B7
:1029C00004128161C161FFF71DFD002803D0BDE83D
:1029D0001040FEF797B910BD00500040DC01002008
:1029E000FEE7FEE77047000000EBC001084800EB7F
:1029F000C100011D81EC030A9FED060A80ED0D0A5E
:102A000080ED0E0A9FED040A80ED0F0A704700006A
:102A1000D00200200000C842000000007047FEF70E
:102A2000BDBC000030B593B030216846FDF793FC83
:102A300014210CA8FDF78FFC1E480025016841F009
:102A400080510160006800F0805011901A480168C0
:102A500041F4804101600068022400F4804011903C
:102A600001200090000401908001CDE9064019206A
:102A700008904FF4A870CDE9090404200B90684633
:102A8000FEF712FE08B172B6FEE70CA90F2081E82E
:102A900031004FF4A0500F904FF48050109005215A
:102AA0000CA8FEF715FD002801D072B6FEE713B0A2
:102AB00030BD00004038024000700040024801680C
:102AC00041F470010160704788ED00E0294810B5BD
:102AD000017801291BD0417801293ED08178012954
:102AE0003ED0C17801293ED0017901293ED08079BC
:102AF00001283BD00C212048FFF70EFB08211F487E
:102B0000FFF70AFBBDE810401D48FFF71AB94279EC
:102B10001A48184B184900680833AAB1012AF1D1A4
:102B2000184A92ED000ABCEEC00A10EE102AC263E9
:102B30001548096890ED000ABCEEC00A10EE100AB4
:102B4000086401201870DDE7104A1288C26310483B
:102B50000968008808640020F4E7FDF761FCD1E70C
:102B6000FFF716FDCEE7FDF76BFCCBE7FDF7FEFDAB
:102B7000C8E7000000000020C00000205001002035
:102B8000080100205C0000206000002026000020DA
:102B900028000020F0B50268254C264D264E274F10
:102BA000274B4FF0804CA04209D0604507D0A84287
:102BB00005D0B04203D0B84201D0984204D122F0EF
:102BC000700E4A6842EA0E02A0421BD0604519D03E
:102BD000A84217D0B04215D0B84213D0984211D0B5
:102BE000184DA8420ED0184DA8420BD0174DA84240
:102BF00008D0174DA84205D0164DA84202D0164D58
:102C0000A84203D122F44075CA682A434D6922F0D4
:102C100080022A4302608A68C2620A688262A04215
:102C200001D0984201D10969016301214161F0BDE0
:102C3000000001400004004000080040000C00407B
:102C400000040140004001400044014000480140B0
:102C500000180040001C00400020004010B501F0AA
:102C60001F030121046A99408C430462016A9A405F
:102C70001143016210BD10B5846842EA032224F4B6
:102C80007F440A432243826010BD826822F07002B2
:102C90000A4342F00701816070470000F0B5026A04
:102CA00022F001020262036A42688469124E24F033
:102CB00073050C682C4323F002058B682B430D4DE4
:102CC000A84201D0B04205D123F00807CB683B43AE
:102CD00023F00403A84201D0B04205D14D6922F48B
:102CE000407215438A692A4342608461496841639E
:102CF0000362F0BD0000014000040140F0B5026A2B
:102D000022F010020262026A436884690D6824F4AA
:102D1000E64444EA05248D6822F0200242EA0512C6
:102D20000F4D104EA84201D0B04206D1CF6822F01C
:102D3000800242EA071222F04002A84201D0B042CB
:102D400007D14D6923F4406343EA85038D6943EA63
:102D5000850343608461496881630262F0BD0000BD
:102D60000000014000040140F0B5026A22F48072C4
:102D70000262026A4368C46922F4007224F0730597
:102D80000C68124E2C438D6842EA05220E4DA84273
:102D900001D0B04206D1CF6822F4006242EA072295
:102DA00022F48062A84201D0B04207D14D6923F4D9
:102DB000405343EA05138D6943EA05134360C46138
:102DC0004968C1630262F0BD000001400004014097
:102DD00030B5026A22F480520262046A4268C36912
:102DE0000D6823F4E64343EA05238D6824F4005478
:102DF00044EA0534084DA84202D0084DA84204D147
:102E00004D6922F4804242EA85124260C3614968FA
:102E10000164046230BD0000000001400004014074
:102E200010B5036A046A24F001040462846924F082
:102E3000F00444EA021423F00A020A4384610262A5
:102E400010BD10B5036A23F0100303628369046A9E
:102E500023F4704343EA023224F0A00343EA011151
:102E60008261016210BD000010B500F0E5F9044870
:102E7000C179491CC171BDE810400248FFF78EB905
:102E8000000000209801002010B5806B0021C18552
:102E9000C184FFF782F910BD01680C3151E8002FA1
:102EA00022F4907241E80023002BF5D1016814311F
:102EB00051E8002F22F0010241E80023002BF5D158
:102EC000016B012909D101680C3151E8002F22F072
:102ED000100241E80023002BF5D1202180F83E109C
:102EE00000210163704708B590F83E10222901D0F7
:102EF000022008BD82684FF480539A4201D10169D3
:102F000021B1816A9A421BD04AB10AE00268816A03
:102F10005268C2F308020A80816A891C08E00269CB
:102F200072B10268526802F07F020A70816A491C1D
:102F30008162C18D491E0904090CC18503D019E0C5
:102F400002685268F1E70168CA6822F02002CA608C
:102F50000168CA6822F48072CA6001684A6922F076
:102F600001024A61202180F83E10016B012903D043
:102F7000FFF70AFB002008BD0021016301680C3146
:102F800051E8002F22F0100241E80023002BF5D178
:102F900001680A68D20602D50A6849680091818DE5
:102FA000FFF7FAF8E6E7000070B50446006801692B
:102FB000E26821F44051114301612169A068E2698E
:102FC00008436169114308432168CA6849F20C63E8
:102FD0009A430243CA6020684169A26921F44071A2
:102FE0001143416131492068884202D0304988420A
:102FF00002D1FEF717FB01E0FEF704FBE2690023B4
:10300000192164253226B2F5004F626828D0A0FB52
:103010000101930F9200FDF727F90146B0FBF5F08F
:103020006FF01802504301EB800006EB0010B0FB7C
:10303000F5F000F0F002B1FBF5F002EB0012B1FB8D
:10304000F5F06FF01803584301EB800006EB001019
:10305000B0FBF5F000F00F0021681044886070BDEF
:10306000A0FB010192185B41FDF7FEF80146B0FBA1
:10307000F5F00201B1FBF5F06FF01803584301EBD6
:10308000800006EBC000B0FBF5F000F0F80002EBAA
:103090004002B1FBF5F0584301EB800006EBC000A5
:1030A000B0FBF5F000F00700D6E70000001001408B
:1030B00000140140FEE70000114B10B51A68546976
:1030C00044F0400454611A68D36843F01003D3609D
:1030D0000C4A13681C6824F001041C6013681C6807
:1030E00024F001041C601468074BA3601368D860C7
:1030F000106841601068016841F00101016010BD75
:103100009801002020020020044C00400907090E0D
:10311000002804DB00F1E02080F80014704700F084
:103120000F0000F1E02080F8141D7047FEF73EF913
:10313000FFF778FCFFF7DAFAFFF7C2FAFFF730FB88
:10314000FFF77CFBFFF7AEFBFFF712FCFFF72CFC51
:103150000A48FEF747FD0C210948FEF7DDFF08216C
:103160000848FEF7D9FF0C210748FFF7A5FF0748DD
:103170000068C16841F01001C160FEE7080100204D
:10318000C000002050010020F00300209801002022
:1031900080ED040AD0ED051A30EEC00AC0ED061A23
:1031A000C0ED000A80ED050AD0ED0B0AC0ED0C0A57
:1031B00090ED011A21EE002A80ED082A90ED091AFF
:1031C000D0ED022A02EE801A30EE610A80ED091A73
:1031D000D0ED031A60EE211AC0ED0A1A90ED0E0A26
:1031E000B4EEC01AF1EE10FA01DD80ED090A90ED9F
:1031F000091AB1EE400AB4EEC01AF1EE10FA02D389
:10320000B0EE410A01E080ED090A32EE000A30EE2C
:10321000210A80ED0B0A90ED0D1AB4EEC10AF1EE11
:1032200010FA06DCB1EE411AB4EEC10AF1EE10FA62
:1032300001D2B0EE600A70470B4881B000680168A7
:1032400040680090094801680A6822F001020A609B
:1032500002680C2151600068016841F001010160C1
:1032600001B000F005B80000980100202002002005
:103270002DE9F04F4E480178EE295BD1C07AFF2846
:1032800058D14C48DFF830A190F8008048480AF146
:10329000080E0AF1200B477890F80290C67805795D
:1032A00044798379C279017A90F809C0807AB8F1BB
:1032B000010F41D000EE107AB8EE400A8AED000A04
:1032C00000EE109AB8EE400A8AED010A00EE106A8C
:1032D000B8EE400A8EED000A00EE105AB8EE400A31
:1032E0008EED010A00EE104A0AF11004B8EE400A11
:1032F00084ED000A00EE103AB8EE400A84ED010AAF
:1033000000EE102A04F10802B8EE400A82ED000A2D
:1033100000EE101AB8EE400A82ED010A00EE10CA63
:10332000B8EE400A8BED000A00EE100AB8EE400A33
:103330008BED010ABDE8F08FBF1C00EE107A09F199
:103340000108F61EB8EE400AAD1CE41E8AED000A24
:1033500000EE108A5B1FD21CB8EE400A8AED010A0B
:1033600000EE106AB8EEC00A8EED000A00EE105AA8
:10337000B8EE400A8EED010A00EE104A0E4CB8EE8F
:10338000C00A1034C91E84ED000A00EE103AB8EEEF
:10339000C00A84ED010A00EE102A04F10802B8EE1A
:1033A000400A82ED000A00EE101AB8EEC00AB3E738
:1033B000F00300201E000020700000204FF040703D
:1033C000E1EE100A70470006101600061016000005
:1033D00000000000000001020304060708090000C5
:1033E000000001020304000008340008000000206F
:1033F000C0000000C4010008C8340008C00000205C
:10340000A0090000E001000800000000000000002A
:10341000000000000100000010000000000000009B
:103420000024F40000010000000056058E06BB05D4
:103430002906FD042506F704EC06B905F20600008E
:10344000000000000000000000000000000000007C
:103450000000000000C0AA4400A0D0440000AF4417
:103460000000D24400000000000000000000000046
:10347000000000000000000000000000000000004C
:10348000000000000000000000000000000000003C
:10349000000000000000000000000000000000002C
:1034A000000000000000000000000000000000001C
:1034B000000000000000000000000000000000000C
:0834C000000000000000000004
:040000050800018965
:00000001FF
